:100000000AC011C107C0EAC005C004C003C002C0D5
:1000100001C037C11895112410E0A0E6B0E0EAEA6B
:10002000F3E002C005900D92A636B107D9F720E0A3
:10003000A6E6B0E001C01D92A837B207E1F787B38A
:10004000896087BBC19ABED02FEF65EA8EE0215050
:1000500060408040E1F700C00000B4D081EC8FBD6B
:1000600081E083BF81EF86BF80E48BBF15BE85B77B
:10007000877E806185BF89B7826089BF82E487B946
:100080008EEC86B978943EEC21E042E05FEF8091FF
:10009000700090917100A0917200B0917300892B53
:1000A0008A2B8B2BE9F08091740090917500A091C0
:1000B0007600B0917700C0907000D0907100E09011
:1000C0007200F09073008C199D09AE09BF09853646
:1000D0009105A105B10520F086B382708093670079
:1000E000809167008823B1F1C39A36B9809160008E
:1000F000813051F018F0823051F00BC080916900CE
:100100008F5F8093690005C08093610002C01092E8
:10011000600080916900833010F0109269001092A5
:100120007400109275001092760010927700109271
:10013000670010927000109271001092720010927D
:100140007300809166008F5F80936600873010F0A7
:10015000209361008091740090917500A0917600C9
:10016000B091770080339547A105B10550F010920A
:100170007400109275001092760010927700209310
:100180006000809161008130C1F410926100409361
:100190006000109266001092680056BF16B8C398AF
:1001A0008FEF9DEE62E0815090406040E1F700C02B
:1001B000000085B7806285BF889583E08A95F1F756
:1001C000000065CFC39A2FEF84E694E02150804071
:1001D0009040E1F700C00000C39808951F920F926D
:1001E0000FB60F9211248F939F93AF93BF9380917B
:1001F000740090917500A0917600B09177000196FF
:10020000A11DB11D8093740090937500A09376009A
:10021000B0937700BF91AF919F918F910F900FBED8
:100220000F901F9018951F920F920FB60F921124E6
:100230008F939F93AF93BF938091700090917100C3
:10024000A0917200B0917300892B8A2B8B2B81F4C3
:100250008091740090917500A0917600B091770024
:100260008093700090937100A0937200B09373001C
:10027000BF91AF919F918F910F900FBE0F901F90E4
:1002800018951F920F920FB60F9211242F933F9340
:100290004F935F936F937F938F939F93AF93BF938E
:1002A000EF93FF9324B135B180916E0090916F0070
:1002B0008F3F934008F44AC080916A0090916B0090
:1002C000A0916C00B0916D00E0916900F0E0EE59F2
:1002D000FF4F208140916A0050916B0060916C004B
:1002E00070916D00411554406B40710528F435EF55
:1002F00036BF31E03093680040916A0050916B0046
:1003000060916C0070916D004115544F694071050A
:1003100018F431E03093610030916800311109C068
:100320003CE0B695A795979587953A95D1F7821BAE
:1003300086BF10926F0010926E0010926A001092A9
:100340006B0010926C0010926D001DC080916E00C9
:1003500090916F00019690936F0080936E00809152
:100360006A0090916B00A0916C00B0916D00820FBB
:10037000931FA11DB11D80936A0090936B00A09301
:100380006C00B0936D00369AFF91EF91BF91AF91E1
:100390009F918F917F916F915F914F913F912F919D
:0A03A0000F900FBE0F901F901895EC
:0603AA0002011A56AF002B
:00000001FF
