:100000000AC0EDC007C0C6C005C004C003C002C01E
:1000100001C013C11895112410E0A0E6B0E0E4E996
:10002000F3E002C005900D92A636B107D9F720E0A3
:10003000A6E6B0E001C01D92A637B207E1F787B38C
:10004000896087BBC19A81E88FBD81E083BF81EF62
:1000500086BF80E48BBF15BE85B7877E806185BF74
:1000600089B7826089BF82E487B98EEC86B97894BB
:100070002EEC31E042E05FEF80916E0090916F00D6
:10008000A0917000B0917100892B8A2B8B2BE9F025
:100090008091720090917300A0917400B0917500EE
:1000A000C0906E00D0906F00E0907000F0907100F2
:1000B0008C199D09AE09BF0985369105A105B105C9
:1000C00020F086B38270809366008091660088235A
:1000D00069F1C39A26B980916000813051F018F01F
:1000E000823051F00BC0809167008F5F8093670072
:1000F00005C08093610002C010926000809167008B
:10010000833010F01092670010927200109273000A
:1001100010927400109275001092660010926E009A
:1001200010926F0010927000109271008091720016
:1001300090917300A0917400B09175008033954741
:10014000A105B10550F01092720010927300109248
:1001500074001092750030936000809161008130CE
:10016000A1F4109261004093600056BF16B8C39886
:100170008FEF9DEE62E0815090406040E1F700C05B
:10018000000085B7806285BF889583E08A95F1F786
:10019000000072CF1F920F920FB60F9211248F930F
:1001A0009F93AF93BF938091720090917300A09141
:1001B0007400B09175000196A11DB11D809372006D
:1001C00090937300A0937400B0937500BF91AF91AA
:1001D0009F918F910F900FBE0F901F9018951F92B7
:1001E0000F920FB60F9211248F939F93AF93BF93EB
:1001F00080916E0090916F00A0917000B09171009D
:10020000892B8A2B8B2B81F4809172009091730043
:10021000A0917400B091750080936E0090936F0070
:10022000A0937000B0937100BF91AF919F918F9197
:100230000F900FBE0F901F9018951F920F920FB640
:100240000F9211242F933F934F935F936F937F935C
:100250008F939F93AF93BF93CF93EF93FF9324B16B
:1002600035B180916C0090916D008F3F934008F400
:1002700048C0609168007091690080916A00909117
:100280006B00C091670021EF30E040E050E069D0A2
:1002900024E196958795779567952A95D1F7EC2F68
:1002A000F0E0EE59FF4F2081621B66BF809168002D
:1002B00090916900A0916A00B0916B008115904304
:1002C000AC40B10510F485EF86BF80916800909135
:1002D0006900A0916A00B0916B000097AB40B10536
:1002E00018F481E08093610010926D0010926C0010
:1002F000109268001092690010926A0010926B00D0
:100300001DC080916C0090916D00019690936D00DE
:1003100080936C008091680090916900A0916A00C0
:10032000B0916B00820F931FA11DB11D80936800D7
:1003300090936900A0936A00B0936B00369AFF9186
:10034000EF91CF91BF91AF919F918F917F916F91DD
:100350005F914F913F912F910F900FBE0F901F9083
:100360001895EE27FF27AA27BB2708C0A20FB31FA7
:10037000E41FF51F220F331F441F551F96958795C5
:100380007795679598F37040A9F7009799F7BD01A5
:04039000CF010895FC
:0603940002011F80B6000B
:00000001FF
